:0400000003FF03FFF8
:0400010003FE03FEF9
:0400020003FD03FDFA
:0400030003FC03FCFB
:0400040003FB03FBFC
:0400050003FA03FAFD
:0400060003F903F9FE
:0400070003F803F8FF
:0400080003F703F700
:0400090003F603F601
:04000A0003F503F502
:04000B0003F403F403
:04000C0003F303F304
:04000D0003F203F205
:04000E0003F103F106
:04000F0003F003F007
:0400100003EF03EF08
:0400110003EE03EE09
:0400120003ED03ED0A
:0400130003EC03EC0B
:0400140003EB03EB0C
:0400150003EA03EA0D
:0400160003E903E90E
:0400170003E803E80F
:0400180003E703E710
:0400190003E603E611
:04001A0003E503E512
:04001B0003E403E413
:04001C0003E303E314
:04001D0003E203E215
:04001E0003E103E116
:04001F0003E003E017
:0400200003DF03DF18
:0400210003DE03DE19
:0400220003DD03DD1A
:0400230003DC03DC1B
:0400240003DB03DB1C
:0400250003DA03DA1D
:0400260003D903D91E
:0400270003D803D81F
:0400280003D703D720
:0400290003D603D621
:04002A0003D503D522
:04002B0003D403D423
:04002C0003D303D324
:04002D0003D203D225
:04002E0003D103D126
:04002F0003D003D027
:0400300003CF03CF28
:0400310003CE03CE29
:0400320003CD03CD2A
:0400330003CC03CC2B
:0400340003CB03CB2C
:0400350003CA03CA2D
:0400360003C903C92E
:0400370003C803C82F
:0400380003C703C730
:0400390003C603C631
:04003A0003C503C532
:04003B0003C403C433
:04003C0003C303C334
:04003D0003C203C235
:04003E0003C103C136
:04003F0003C003C037
:0400400003BF03BF38
:0400410003BE03BE39
:0400420003BD03BD3A
:0400430003BC03BC3B
:0400440003BB03BB3C
:0400450003BA03BA3D
:0400460003B903B93E
:0400470003B803B83F
:0400480003B703B740
:0400490003B603B641
:04004A0003B503B542
:04004B0003B403B443
:04004C0003B303B344
:04004D0003B203B245
:04004E0003B103B146
:04004F0003B003B047
:0400500003AF03AF48
:0400510003AE03AE49
:0400520003AD03AD4A
:0400530003AC03AC4B
:0400540003AB03AB4C
:0400550003AA03AA4D
:0400560003A903A94E
:0400570003A803A84F
:0400580003A703A750
:0400590003A603A651
:04005A0003A503A552
:04005B0003A403A453
:04005C0003A303A354
:04005D0003A203A255
:04005E0003A103A156
:04005F0003A003A057
:04006000039F039F58
:04006100039E039E59
:04006200039D039D5A
:04006300039C039C5B
:04006400039B039B5C
:04006500039A039A5D
:04006600039903995E
:04006700039803985F
:040068000397039760
:040069000396039661
:04006A000395039562
:04006B000394039463
:04006C000393039364
:04006D000392039265
:04006E000391039166
:04006F000390039067
:04007000038F038F68
:04007100038E038E69
:04007200038D038D6A
:04007300038C038C6B
:04007400038B038B6C
:04007500038A038A6D
:04007600038903896E
:04007700038803886F
:040078000387038770
:040079000386038671
:04007A000385038572
:04007B000384038473
:04007C000383038374
:04007D000382038275
:04007E000381038176
:04007F000380038077
:04008000037F037F78
:04008100037E037E79
:04008200037D037D7A
:04008300037C037C7B
:04008400037B037B7C
:04008500037A037A7D
:04008600037903797E
:04008700037803787F
:040088000377037780
:040089000376037681
:04008A000375037582
:04008B000374037483
:04008C000373037384
:04008D000372037285
:04008E000371037186
:04008F000370037087
:04009000036F036F88
:04009100036E036E89
:04009200036D036D8A
:04009300036C036C8B
:04009400036B036B8C
:04009500036A036A8D
:04009600036903698E
:04009700036803688F
:040098000367036790
:040099000366036691
:04009A000365036592
:04009B000364036493
:04009C000363036394
:04009D000362036295
:04009E000361036196
:04009F000360036097
:0400A000035F035F98
:0400A100035E035E99
:0400A200035D035D9A
:0400A300035C035C9B
:0400A400035B035B9C
:0400A500035A035A9D
:0400A600035903599E
:0400A700035803589F
:0400A80003570357A0
:0400A90003560356A1
:0400AA0003550355A2
:0400AB0003540354A3
:0400AC0003530353A4
:0400AD0003520352A5
:0400AE0003510351A6
:0400AF0003500350A7
:0400B000034F034FA8
:0400B100034E034EA9
:0400B200034D034DAA
:0400B300034C034CAB
:0400B400034B034BAC
:0400B500034A034AAD
:0400B60003490349AE
:0400B70003480348AF
:0400B80003470347B0
:0400B90003460346B1
:0400BA0003450345B2
:0400BB0003440344B3
:0400BC0003430343B4
:0400BD0003420342B5
:0400BE0003410341B6
:0400BF0003400340B7
:0400C000033F033FB8
:0400C100033E033EB9
:0400C200033D033DBA
:0400C300033C033CBB
:0400C400033B033BBC
:0400C500033A033ABD
:0400C60003390339BE
:0400C70003380338BF
:0400C80003370337C0
:0400C90003360336C1
:0400CA0003350335C2
:0400CB0003340334C3
:0400CC0003330333C4
:0400CD0003320332C5
:0400CE0003310331C6
:0400CF0003300330C7
:0400D000032F032FC8
:0400D100032E032EC9
:0400D200032D032DCA
:0400D300032C032CCB
:0400D400032B032BCC
:0400D500032A032ACD
:0400D60003290329CE
:0400D70003280328CF
:0400D80003270327D0
:0400D90003260326D1
:0400DA0003250325D2
:0400DB0003240324D3
:0400DC0003230323D4
:0400DD0003220322D5
:0400DE0003210321D6
:0400DF0003200320D7
:0400E000031F031FD8
:0400E100031E031ED9
:0400E200031D031DDA
:0400E300031C031CDB
:0400E400031B031BDC
:0400E500031A031ADD
:0400E60003190319DE
:0400E70003180318DF
:0400E80003170317E0
:0400E90003160316E1
:0400EA0003150315E2
:0400EB0003140314E3
:0400EC0003130313E4
:0400ED0003120312E5
:0400EE0003110311E6
:0400EF0003100310E7
:0400F000030F030FE8
:0400F100030E030EE9
:0400F200030D030DEA
:0400F300030C030CEB
:0400F400030B030BEC
:0400F500030A030AED
:0400F60003090309EE
:0400F70003080308EF
:0400F80003070307F0
:0400F90003060306F1
:0400FA0003050305F2
:0400FB0003040304F3
:0400FC0003030303F4
:0400FD0003020302F5
:0400FE0003010301F6
:0400FF0003000300F7
:0401000002FF02FFF9
:0401010002FE02FEFA
:0401020002FD02FDFB
:0401030002FC02FCFC
:0401040002FB02FBFD
:0401050002FA02FAFE
:0401060002F902F9FF
:0401070002F802F800
:0401080002F702F701
:0401090002F602F602
:04010A0002F502F503
:04010B0002F402F404
:04010C0002F302F305
:04010D0002F202F206
:04010E0002F102F107
:04010F0002F002F008
:0401100002EF02EF09
:0401110002EE02EE0A
:0401120002ED02ED0B
:0401130002EC02EC0C
:0401140002EB02EB0D
:0401150002EA02EA0E
:0401160002E902E90F
:0401170002E802E810
:0401180002E702E711
:0401190002E602E612
:04011A0002E502E513
:04011B0002E402E414
:04011C0002E302E315
:04011D0002E202E216
:04011E0002E102E117
:04011F0002E002E018
:0401200002DF02DF19
:0401210002DE02DE1A
:0401220002DD02DD1B
:0401230002DC02DC1C
:0401240002DB02DB1D
:0401250002DA02DA1E
:0401260002D902D91F
:0401270002D802D820
:0401280002D702D721
:0401290002D602D622
:04012A0002D502D523
:04012B0002D402D424
:04012C0002D302D325
:04012D0002D202D226
:04012E0002D102D127
:04012F0002D002D028
:0401300002CF02CF29
:0401310002CE02CE2A
:0401320002CD02CD2B
:0401330002CC02CC2C
:0401340002CB02CB2D
:0401350002CA02CA2E
:0401360002C902C92F
:0401370002C802C830
:0401380002C702C731
:0401390002C602C632
:04013A0002C502C533
:04013B0002C402C434
:04013C0002C302C335
:04013D0002C202C236
:04013E0002C102C137
:04013F0002C002C038
:0401400002BF02BF39
:0401410002BE02BE3A
:0401420002BD02BD3B
:0401430002BC02BC3C
:0401440002BB02BB3D
:0401450002BA02BA3E
:0401460002B902B93F
:0401470002B802B840
:0401480002B702B741
:0401490002B602B642
:04014A0002B502B543
:04014B0002B402B444
:04014C0002B302B345
:04014D0002B202B246
:04014E0002B102B147
:04014F0002B002B048
:0401500002AF02AF49
:0401510002AE02AE4A
:0401520002AD02AD4B
:0401530002AC02AC4C
:0401540002AB02AB4D
:0401550002AA02AA4E
:0401560002A902A94F
:0401570002A802A850
:0401580002A702A751
:0401590002A602A652
:04015A0002A502A553
:04015B0002A402A454
:04015C0002A302A355
:04015D0002A202A256
:04015E0002A102A157
:04015F0002A002A058
:04016000029F029F59
:04016100029E029E5A
:04016200029D029D5B
:04016300029C029C5C
:04016400029B029B5D
:04016500029A029A5E
:04016600029902995F
:040167000298029860
:040168000297029761
:040169000296029662
:04016A000295029563
:04016B000294029464
:04016C000293029365
:04016D000292029266
:04016E000291029167
:04016F000290029068
:04017000028F028F69
:04017100028E028E6A
:04017200028D028D6B
:04017300028C028C6C
:04017400028B028B6D
:04017500028A028A6E
:04017600028902896F
:040177000288028870
:040178000287028771
:040179000286028672
:04017A000285028573
:04017B000284028474
:04017C000283028375
:04017D000282028276
:04017E000281028177
:04017F000280028078
:04018000027F027F79
:04018100027E027E7A
:04018200027D027D7B
:04018300027C027C7C
:04018400027B027B7D
:04018500027A027A7E
:04018600027902797F
:040187000278027880
:040188000277027781
:040189000276027682
:04018A000275027583
:04018B000274027484
:04018C000273027385
:04018D000272027286
:04018E000271027187
:04018F000270027088
:04019000026F026F89
:04019100026E026E8A
:04019200026D026D8B
:04019300026C026C8C
:04019400026B026B8D
:04019500026A026A8E
:04019600026902698F
:040197000268026890
:040198000267026791
:040199000266026692
:04019A000265026593
:04019B000264026494
:04019C000263026395
:04019D000262026296
:04019E000261026197
:04019F000260026098
:0401A000025F025F99
:0401A100025E025E9A
:0401A200025D025D9B
:0401A300025C025C9C
:0401A400025B025B9D
:0401A500025A025A9E
:0401A600025902599F
:0401A70002580258A0
:0401A80002570257A1
:0401A90002560256A2
:0401AA0002550255A3
:0401AB0002540254A4
:0401AC0002530253A5
:0401AD0002520252A6
:0401AE0002510251A7
:0401AF0002500250A8
:0401B000024F024FA9
:0401B100024E024EAA
:0401B200024D024DAB
:0401B300024C024CAC
:0401B400024B024BAD
:0401B500024A024AAE
:0401B60002490249AF
:0401B70002480248B0
:0401B80002470247B1
:0401B90002460246B2
:0401BA0002450245B3
:0401BB0002440244B4
:0401BC0002430243B5
:0401BD0002420242B6
:0401BE0002410241B7
:0401BF0002400240B8
:0401C000023F023FB9
:0401C100023E023EBA
:0401C200023D023DBB
:0401C300023C023CBC
:0401C400023B023BBD
:0401C500023A023ABE
:0401C60002390239BF
:0401C70002380238C0
:0401C80002370237C1
:0401C90002360236C2
:0401CA0002350235C3
:0401CB0002340234C4
:0401CC0002330233C5
:0401CD0002320232C6
:0401CE0002310231C7
:0401CF0002300230C8
:0401D000022F022FC9
:0401D100022E022ECA
:0401D200022D022DCB
:0401D300022C022CCC
:0401D400022B022BCD
:0401D500022A022ACE
:0401D60002290229CF
:0401D70002280228D0
:0401D80002270227D1
:0401D90002260226D2
:0401DA0002250225D3
:0401DB0002240224D4
:0401DC0002230223D5
:0401DD0002220222D6
:0401DE0002210221D7
:0401DF0002200220D8
:0401E000021F021FD9
:0401E100021E021EDA
:0401E200021D021DDB
:0401E300021C021CDC
:0401E400021B021BDD
:0401E500021A021ADE
:0401E60002190219DF
:0401E70002180218E0
:0401E80002170217E1
:0401E90002160216E2
:0401EA0002150215E3
:0401EB0002140214E4
:0401EC0002130213E5
:0401ED0002120212E6
:0401EE0002110211E7
:0401EF0002100210E8
:0401F000020F020FE9
:0401F100020E020EEA
:0401F200020D020DEB
:0401F300020C020CEC
:0401F400020B020BED
:0401F500020A020AEE
:0401F60002090209EF
:0401F70002080208F0
:0401F80002070207F1
:0401F90002060206F2
:0401FA0002050205F3
:0401FB0002040204F4
:0401FC0002030203F5
:0401FD0002020202F6
:0401FE0002010201F7
:0401FF0002000200F8
:0402000001FF01FFFA
:0402010001FE01FEFB
:0402020001FD01FDFC
:0402030001FC01FCFD
:0402040001FB01FBFE
:0402050001FA01FAFF
:0402060001F901F900
:0402070001F801F801
:0402080001F701F702
:0402090001F601F603
:04020A0001F501F504
:04020B0001F401F405
:04020C0001F301F306
:04020D0001F201F207
:04020E0001F101F108
:04020F0001F001F009
:0402100001EF01EF0A
:0402110001EE01EE0B
:0402120001ED01ED0C
:0402130001EC01EC0D
:0402140001EB01EB0E
:0402150001EA01EA0F
:0402160001E901E910
:0402170001E801E811
:0402180001E701E712
:0402190001E601E613
:04021A0001E501E514
:04021B0001E401E415
:04021C0001E301E316
:04021D0001E201E217
:04021E0001E101E118
:04021F0001E001E019
:0402200001DF01DF1A
:0402210001DE01DE1B
:0402220001DD01DD1C
:0402230001DC01DC1D
:0402240001DB01DB1E
:0402250001DA01DA1F
:0402260001D901D920
:0402270001D801D821
:0402280001D701D722
:0402290001D601D623
:04022A0001D501D524
:04022B0001D401D425
:04022C0001D301D326
:04022D0001D201D227
:04022E0001D101D128
:04022F0001D001D029
:0402300001CF01CF2A
:0402310001CE01CE2B
:0402320001CD01CD2C
:0402330001CC01CC2D
:0402340001CB01CB2E
:0402350001CA01CA2F
:0402360001C901C930
:0402370001C801C831
:0402380001C701C732
:0402390001C601C633
:04023A0001C501C534
:04023B0001C401C435
:04023C0001C301C336
:04023D0001C201C237
:04023E0001C101C138
:04023F0001C001C039
:0402400001BF01BF3A
:0402410001BE01BE3B
:0402420001BD01BD3C
:0402430001BC01BC3D
:0402440001BB01BB3E
:0402450001BA01BA3F
:0402460001B901B940
:0402470001B801B841
:0402480001B701B742
:0402490001B601B643
:04024A0001B501B544
:04024B0001B401B445
:04024C0001B301B346
:04024D0001B201B247
:04024E0001B101B148
:04024F0001B001B049
:0402500001AF01AF4A
:0402510001AE01AE4B
:0402520001AD01AD4C
:0402530001AC01AC4D
:0402540001AB01AB4E
:0402550001AA01AA4F
:0402560001A901A950
:0402570001A801A851
:0402580001A701A752
:0402590001A601A653
:04025A0001A501A554
:04025B0001A401A455
:04025C0001A301A356
:04025D0001A201A257
:04025E0001A101A158
:04025F0001A001A059
:04026000019F019F5A
:04026100019E019E5B
:04026200019D019D5C
:04026300019C019C5D
:04026400019B019B5E
:04026500019A019A5F
:040266000199019960
:040267000198019861
:040268000197019762
:040269000196019663
:04026A000195019564
:04026B000194019465
:04026C000193019366
:04026D000192019267
:04026E000191019168
:04026F000190019069
:04027000018F018F6A
:04027100018E018E6B
:04027200018D018D6C
:04027300018C018C6D
:04027400018B018B6E
:04027500018A018A6F
:040276000189018970
:040277000188018871
:040278000187018772
:040279000186018673
:04027A000185018574
:04027B000184018475
:04027C000183018376
:04027D000182018277
:04027E000181018178
:04027F000180018079
:04028000017F017F7A
:04028100017E017E7B
:04028200017D017D7C
:04028300017C017C7D
:04028400017B017B7E
:04028500017A017A7F
:040286000179017980
:040287000178017881
:040288000177017782
:040289000176017683
:04028A000175017584
:04028B000174017485
:04028C000173017386
:04028D000172017287
:04028E000171017188
:04028F000170017089
:04029000016F016F8A
:04029100016E016E8B
:04029200016D016D8C
:04029300016C016C8D
:04029400016B016B8E
:04029500016A016A8F
:040296000169016990
:040297000168016891
:040298000167016792
:040299000166016693
:04029A000165016594
:04029B000164016495
:04029C000163016396
:04029D000162016297
:04029E000161016198
:04029F000160016099
:0402A000015F015F9A
:0402A100015E015E9B
:0402A200015D015D9C
:0402A300015C015C9D
:0402A400015B015B9E
:0402A500015A015A9F
:0402A60001590159A0
:0402A70001580158A1
:0402A80001570157A2
:0402A90001560156A3
:0402AA0001550155A4
:0402AB0001540154A5
:0402AC0001530153A6
:0402AD0001520152A7
:0402AE0001510151A8
:0402AF0001500150A9
:0402B000014F014FAA
:0402B100014E014EAB
:0402B200014D014DAC
:0402B300014C014CAD
:0402B400014B014BAE
:0402B500014A014AAF
:0402B60001490149B0
:0402B70001480148B1
:0402B80001470147B2
:0402B90001460146B3
:0402BA0001450145B4
:0402BB0001440144B5
:0402BC0001430143B6
:0402BD0001420142B7
:0402BE0001410141B8
:0402BF0001400140B9
:0402C000013F013FBA
:0402C100013E013EBB
:0402C200013D013DBC
:0402C300013C013CBD
:0402C400013B013BBE
:0402C500013A013ABF
:0402C60001390139C0
:0402C70001380138C1
:0402C80001370137C2
:0402C90001360136C3
:0402CA0001350135C4
:0402CB0001340134C5
:0402CC0001330133C6
:0402CD0001320132C7
:0402CE0001310131C8
:0402CF0001300130C9
:0402D000012F012FCA
:0402D100012E012ECB
:0402D200012D012DCC
:0402D300012C012CCD
:0402D400012B012BCE
:0402D500012A012ACF
:0402D60001290129D0
:0402D70001280128D1
:0402D80001270127D2
:0402D90001260126D3
:0402DA0001250125D4
:0402DB0001240124D5
:0402DC0001230123D6
:0402DD0001220122D7
:0402DE0001210121D8
:0402DF0001200120D9
:0402E000011F011FDA
:0402E100011E011EDB
:0402E200011D011DDC
:0402E300011C011CDD
:0402E400011B011BDE
:0402E500011A011ADF
:0402E60001190119E0
:0402E70001180118E1
:0402E80001170117E2
:0402E90001160116E3
:0402EA0001150115E4
:0402EB0001140114E5
:0402EC0001130113E6
:0402ED0001120112E7
:0402EE0001110111E8
:0402EF0001100110E9
:0402F000010F010FEA
:0402F100010E010EEB
:0402F200010D010DEC
:0402F300010C010CED
:0402F400010B010BEE
:0402F500010A010AEF
:0402F60001090109F0
:0402F70001080108F1
:0402F80001070107F2
:0402F90001060106F3
:0402FA0001050105F4
:0402FB0001040104F5
:0402FC0001030103F6
:0402FD0001020102F7
:0402FE0001010101F8
:0402FF0001000100F9
:0403000000FF00FFFB
:0403010000FE00FEFC
:0403020000FD00FDFD
:0403030000FC00FCFE
:0403040000FB00FBFF
:0403050000FA00FA00
:0403060000F900F901
:0403070000F800F802
:0403080000F700F703
:0403090000F600F604
:04030A0000F500F505
:04030B0000F400F406
:04030C0000F300F307
:04030D0000F200F208
:04030E0000F100F109
:04030F0000F000F00A
:0403100000EF00EF0B
:0403110000EE00EE0C
:0403120000ED00ED0D
:0403130000EC00EC0E
:0403140000EB00EB0F
:0403150000EA00EA10
:0403160000E900E911
:0403170000E800E812
:0403180000E700E713
:0403190000E600E614
:04031A0000E500E515
:04031B0000E400E416
:04031C0000E300E317
:04031D0000E200E218
:04031E0000E100E119
:04031F0000E000E01A
:0403200000DF00DF1B
:0403210000DE00DE1C
:0403220000DD00DD1D
:0403230000DC00DC1E
:0403240000DB00DB1F
:0403250000DA00DA20
:0403260000D900D921
:0403270000D800D822
:0403280000D700D723
:0403290000D600D624
:04032A0000D500D525
:04032B0000D400D426
:04032C0000D300D327
:04032D0000D200D228
:04032E0000D100D129
:04032F0000D000D02A
:0403300000CF00CF2B
:0403310000CE00CE2C
:0403320000CD00CD2D
:0403330000CC00CC2E
:0403340000CB00CB2F
:0403350000CA00CA30
:0403360000C900C931
:0403370000C800C832
:0403380000C700C733
:0403390000C600C634
:04033A0000C500C535
:04033B0000C400C436
:04033C0000C300C337
:04033D0000C200C238
:04033E0000C100C139
:04033F0000C000C03A
:0403400000BF00BF3B
:0403410000BE00BE3C
:0403420000BD00BD3D
:0403430000BC00BC3E
:0403440000BB00BB3F
:0403450000BA00BA40
:0403460000B900B941
:0403470000B800B842
:0403480000B700B743
:0403490000B600B644
:04034A0000B500B545
:04034B0000B400B446
:04034C0000B300B347
:04034D0000B200B248
:04034E0000B100B149
:04034F0000B000B04A
:0403500000AF00AF4B
:0403510000AE00AE4C
:0403520000AD00AD4D
:0403530000AC00AC4E
:0403540000AB00AB4F
:0403550000AA00AA50
:0403560000A900A951
:0403570000A800A852
:0403580000A700A753
:0403590000A600A654
:04035A0000A500A555
:04035B0000A400A456
:04035C0000A300A357
:04035D0000A200A258
:04035E0000A100A159
:04035F0000A000A05A
:04036000009F009F5B
:04036100009E009E5C
:04036200009D009D5D
:04036300009C009C5E
:04036400009B009B5F
:04036500009A009A60
:040366000099009961
:040367000098009862
:040368000097009763
:040369000096009664
:04036A000095009565
:04036B000094009466
:04036C000093009367
:04036D000092009268
:04036E000091009169
:04036F00009000906A
:04037000008F008F6B
:04037100008E008E6C
:04037200008D008D6D
:04037300008C008C6E
:04037400008B008B6F
:04037500008A008A70
:040376000089008971
:040377000088008872
:040378000087008773
:040379000086008674
:04037A000085008575
:04037B000084008476
:04037C000083008377
:04037D000082008278
:04037E000081008179
:04037F00008000807A
:04038000007F007F7B
:04038100007E007E7C
:04038200007D007D7D
:04038300007C007C7E
:04038400007B007B7F
:04038500007A007A80
:040386000079007981
:040387000078007882
:040388000077007783
:040389000076007684
:04038A000075007585
:04038B000074007486
:04038C000073007387
:04038D000072007288
:04038E000071007189
:04038F00007000708A
:04039000006F006F8B
:04039100006E006E8C
:04039200006D006D8D
:04039300006C006C8E
:04039400006B006B8F
:04039500006A006A90
:040396000069006991
:040397000068006892
:040398000067006793
:040399000066006694
:04039A000065006595
:04039B000064006496
:04039C000063006397
:04039D000062006298
:04039E000061006199
:04039F00006000609A
:0403A000005F005F9B
:0403A100005E005E9C
:0403A200005D005D9D
:0403A300005C005C9E
:0403A400005B005B9F
:0403A500005A005AA0
:0403A60000590059A1
:0403A70000580058A2
:0403A80000570057A3
:0403A90000560056A4
:0403AA0000550055A5
:0403AB0000540054A6
:0403AC0000530053A7
:0403AD0000520052A8
:0403AE0000510051A9
:0403AF0000500050AA
:0403B000004F004FAB
:0403B100004E004EAC
:0403B200004D004DAD
:0403B300004C004CAE
:0403B400004B004BAF
:0403B500004A004AB0
:0403B60000490049B1
:0403B70000480048B2
:0403B80000470047B3
:0403B90000460046B4
:0403BA0000450045B5
:0403BB0000440044B6
:0403BC0000430043B7
:0403BD0000420042B8
:0403BE0000410041B9
:0403BF0000400040BA
:0403C000003F003FBB
:0403C100003E003EBC
:0403C200003D003DBD
:0403C300003C003CBE
:0403C400003B003BBF
:0403C500003A003AC0
:0403C60000390039C1
:0403C70000380038C2
:0403C80000370037C3
:0403C90000360036C4
:0403CA0000350035C5
:0403CB0000340034C6
:0403CC0000330033C7
:0403CD0000320032C8
:0403CE0000310031C9
:0403CF0000300030CA
:0403D000002F002FCB
:0403D100002E002ECC
:0403D200002D002DCD
:0403D300002C002CCE
:0403D400002B002BCF
:0403D500002A002AD0
:0403D60000290029D1
:0403D70000280028D2
:0403D80000270027D3
:0403D90000260026D4
:0403DA0000250025D5
:0403DB0000240024D6
:0403DC0000230023D7
:0403DD0000220022D8
:0403DE0000210021D9
:0403DF0000200020DA
:0403E000001F001FDB
:0403E100001E001EDC
:0403E200001D001DDD
:0403E300001C001CDE
:0403E400001B001BDF
:0403E500001A001AE0
:0403E60000190019E1
:0403E70000180018E2
:0403E80000170017E3
:0403E90000160016E4
:0403EA0000150015E5
:0403EB0000140014E6
:0403EC0000130013E7
:0403ED0000120012E8
:0403EE0000110011E9
:0403EF0000100010EA
:0403F000000F000FEB
:0403F100000E000EEC
:0403F200000D000DED
:0403F300000C000CEE
:0403F400000B000BEF
:0403F500000A000AF0
:0403F60000090009F1
:0403F70000080008F2
:0403F800000700708A
:0403F900000600609A
:0403FA0000050050AA
:0403FB0000040040BA
:0403FC0000030030CA
:0403FD0000020020DA
:0403FE0000010010EA
:0403FF0000000000FA
:00000001FF
