:0400000000800090EC
:0400010000010010EA
:0400020000020020D8
:0400030000030030C6
:0400040000040040B4
:0400050000050050A2
:040006000006006090
:04000700000700707E
:0400080000080008E4
:0400090000090009E1
:04000A00000A000ADE
:04000B00000B000BDB
:04000C00000C000CD8
:04000D00000D000DD5
:04000E00000E000ED2
:04000F00000F000FCF
:0400100000100010CC
:0400110000110011C9
:0400120000120012C6
:0400130000130013C3
:0400140000140014C0
:0400150000150015BD
:0400160000160016BA
:0400170000170017B7
:0400180000180018B4
:0400190000190019B1
:04001A00001A001AAE
:04001B00001B001BAB
:04001C00001C001CA8
:04001D00001D001DA5
:04001E00001E001EA2
:04001F00001F001F9F
:04002000002000209C
:040021000021002199
:040022000022002296
:040023000023002393
:040024000024002490
:04002500002500258D
:04002600002600268A
:040027000027002787
:040028000028002884
:040029000029002981
:04002A00002A002A7E
:04002B00002B002B7B
:04002C00002C002C78
:04002D00002D002D75
:04002E00002E002E72
:04002F00002F002F6F
:04003000003000306C
:040031000031003169
:040032000032003266
:040033000033003363
:040034000034003460
:04003500003500355D
:04003600003600365A
:040037000037003757
:040038000038003854
:040039000039003951
:04003A00003A003A4E
:04003B00003B003B4B
:04003C00003C003C48
:04003D00003D003D45
:04003E00003E003E42
:04003F00003F003F3F
:04004000004000403C
:040041000041004139
:040042000042004236
:040043000043004333
:040044000044004430
:04004500004500452D
:04004600004600462A
:040047000047004727
:040048000048004824
:040049000049004921
:04004A00004A004A1E
:04004B00004B004B1B
:04004C00004C004C18
:04004D00004D004D15
:04004E00004E004E12
:04004F00004F004F0F
:04005000005000500C
:040051000051005109
:040052000052005206
:040053000053005303
:040054000054005400
:0400550000550055FD
:0400560000560056FA
:0400570000570057F7
:0400580000580058F4
:0400590000590059F1
:04005A00005A005AEE
:04005B00005B005BEB
:04005C00005C005CE8
:04005D00005D005DE5
:04005E00005E005EE2
:04005F00005F005FDF
:0400600000600060DC
:0400610000610061D9
:0400620000620062D6
:0400630000630063D3
:0400640000640064D0
:0400650000650065CD
:0400660000660066CA
:0400670000670067C7
:0400680000680068C4
:0400690000690069C1
:04006A00006A006ABE
:04006B00006B006BBB
:04006C00006C006CB8
:04006D00006D006DB5
:04006E00006E006EB2
:04006F00006F006FAF
:0400700000700070AC
:0400710000710071A9
:0400720000720072A6
:0400730000730073A3
:0400740000740074A0
:04007500007500759D
:04007600007600769A
:040077000077007797
:040078000078007894
:040079000079007991
:04007A00007A007A8E
:04007B00007B007B8B
:04007C00007C007C88
:04007D00007D007D85
:04007E00007E007E82
:04007F00007F007F7F
:04008000008000807C
:040081000081008179
:040082000082008276
:040083000083008373
:040084000084008470
:04008500008500856D
:04008600008600866A
:040087000087008767
:040088000088008864
:040089000089008961
:04008A00008A008A5E
:04008B00008B008B5B
:04008C00008C008C58
:04008D00008D008D55
:04008E00008E008E52
:04008F00008F008F4F
:04009000009000904C
:040091000091009149
:040092000092009246
:040093000093009343
:040094000094009440
:04009500009500953D
:04009600009600963A
:040097000097009737
:040098000098009834
:040099000099009931
:04009A00009A009A2E
:04009B00009B009B2B
:04009C00009C009C28
:04009D00009D009D25
:04009E00009E009E22
:04009F00009F009F1F
:0400A00000A000A01C
:0400A10000A100A119
:0400A20000A200A216
:0400A30000A300A313
:0400A40000A400A410
:0400A50000A500A50D
:0400A60000A600A60A
:0400A70000A700A707
:0400A80000A800A804
:0400A90000A900A901
:0400AA0000AA00AAFE
:0400AB0000AB00ABFB
:0400AC0000AC00ACF8
:0400AD0000AD00ADF5
:0400AE0000AE00AEF2
:0400AF0000AF00AFEF
:0400B00000B000B0EC
:0400B10000B100B1E9
:0400B20000B200B2E6
:0400B30000B300B3E3
:0400B40000B400B4E0
:0400B50000B500B5DD
:0400B60000B600B6DA
:0400B70000B700B7D7
:0400B80000B800B8D4
:0400B90000B900B9D1
:0400BA0000BA00BACE
:0400BB0000BB00BBCB
:0400BC0000BC00BCC8
:0400BD0000BD00BDC5
:0400BE0000BE00BEC2
:0400BF0000BF00BFBF
:0400C00000C000C0BC
:0400C10000C100C1B9
:0400C20000C200C2B6
:0400C30000C300C3B3
:0400C40000C400C4B0
:0400C50000C500C5AD
:0400C60000C600C6AA
:0400C70000C700C7A7
:0400C80000C800C8A4
:0400C90000C900C9A1
:0400CA0000CA00CA9E
:0400CB0000CB00CB9B
:0400CC0000CC00CC98
:0400CD0000CD00CD95
:0400CE0000CE00CE92
:0400CF0000CF00CF8F
:0400D00000D000D08C
:0400D10000D100D189
:0400D20000D200D286
:0400D30000D300D383
:0400D40000D400D480
:0400D50000D500D57D
:0400D60000D600D67A
:0400D70000D700D777
:0400D80000D800D874
:0400D90000D900D971
:0400DA0000DA00DA6E
:0400DB0000DB00DB6B
:0400DC0000DC00DC68
:0400DD0000DD00DD65
:0400DE0000DE00DE62
:0400DF0000DF00DF5F
:0400E00000E000E05C
:0400E10000E100E159
:0400E20000E200E256
:0400E30000E300E353
:0400E40000E400E450
:0400E50000E500E54D
:0400E60000E600E64A
:0400E70000E700E747
:0400E80000E800E844
:0400E90000E900E941
:0400EA0000EA00EA3E
:0400EB0000EB00EB3B
:0400EC0000EC00EC38
:0400ED0000ED00ED35
:0400EE0000EE00EE32
:0400EF0000EF00EF2F
:0400F00000F000F02C
:0400F10000F100F129
:0400F20000F200F226
:0400F30000F300F323
:0400F40000F400F420
:0400F50000F500F51D
:0400F60000F600F61A
:0400F70000F700F717
:0400F80000F800F814
:0400F90000F900F911
:0400FA0000FA00FA0E
:0400FB0000FB00FB0B
:0400FC0000FC00FC08
:0400FD0000FD00FD05
:0400FE0000FE00FE02
:0400FF0000FF00FFFF
:0401000001000100F9
:0401010001010101F6
:0401020001020102F3
:0401030001030103F0
:0401040001040104ED
:0401050001050105EA
:0401060001060106E7
:0401070001070107E4
:0401080001080108E1
:0401090001090109DE
:04010A00010A010ADB
:04010B00010B010BD8
:04010C00010C010CD5
:04010D00010D010DD2
:04010E00010E010ECF
:04010F00010F010FCC
:0401100001100110C9
:0401110001110111C6
:0401120001120112C3
:0401130001130113C0
:0401140001140114BD
:0401150001150115BA
:0401160001160116B7
:0401170001170117B4
:0401180001180118B1
:0401190001190119AE
:04011A00011A011AAB
:04011B00011B011BA8
:04011C00011C011CA5
:04011D00011D011DA2
:04011E00011E011E9F
:04011F00011F011F9C
:040120000120012099
:040121000121012196
:040122000122012293
:040123000123012390
:04012400012401248D
:04012500012501258A
:040126000126012687
:040127000127012784
:040128000128012881
:04012900012901297E
:04012A00012A012A7B
:04012B00012B012B78
:04012C00012C012C75
:04012D00012D012D72
:04012E00012E012E6F
:04012F00012F012F6C
:040130000130013069
:040131000131013166
:040132000132013263
:040133000133013360
:04013400013401345D
:04013500013501355A
:040136000136013657
:040137000137013754
:040138000138013851
:04013900013901394E
:04013A00013A013A4B
:04013B00013B013B48
:04013C00013C013C45
:04013D00013D013D42
:04013E00013E013E3F
:04013F00013F013F3C
:040140000140014039
:040141000141014136
:040142000142014233
:040143000143014330
:04014400014401442D
:04014500014501452A
:040146000146014627
:040147000147014724
:040148000148014821
:04014900014901491E
:04014A00014A014A1B
:04014B00014B014B18
:04014C00014C014C15
:04014D00014D014D12
:04014E00014E014E0F
:04014F00014F014F0C
:040150000150015009
:040151000151015106
:040152000152015203
:040153000153015300
:0401540001540154FD
:0401550001550155FA
:0401560001560156F7
:0401570001570157F4
:0401580001580158F1
:0401590001590159EE
:04015A00015A015AEB
:04015B00015B015BE8
:04015C00015C015CE5
:04015D00015D015DE2
:04015E00015E015EDF
:04015F00015F015FDC
:0401600001600160D9
:0401610001610161D6
:0401620001620162D3
:0401630001630163D0
:0401640001640164CD
:0401650001650165CA
:0401660001660166C7
:0401670001670167C4
:0401680001680168C1
:0401690001690169BE
:04016A00016A016ABB
:04016B00016B016BB8
:04016C00016C016CB5
:04016D00016D016DB2
:04016E00016E016EAF
:04016F00016F016FAC
:0401700001700170A9
:0401710001710171A6
:0401720001720172A3
:0401730001730173A0
:04017400017401749D
:04017500017501759A
:040176000176017697
:040177000177017794
:040178000178017891
:04017900017901798E
:04017A00017A017A8B
:04017B00017B017B88
:04017C00017C017C85
:04017D00017D017D82
:04017E00017E017E7F
:04017F00017F017F7C
:040180000180018079
:040181000181018176
:040182000182018273
:040183000183018370
:04018400018401846D
:04018500018501856A
:040186000186018667
:040187000187018764
:040188000188018861
:04018900018901895E
:04018A00018A018A5B
:04018B00018B018B58
:04018C00018C018C55
:04018D00018D018D52
:04018E00018E018E4F
:04018F00018F018F4C
:040190000190019049
:040191000191019146
:040192000192019243
:040193000193019340
:04019400019401943D
:04019500019501953A
:040196000196019637
:040197000197019734
:040198000198019831
:04019900019901992E
:04019A00019A019A2B
:04019B00019B019B28
:04019C00019C019C25
:04019D00019D019D22
:04019E00019E019E1F
:04019F00019F019F1C
:0401A00001A001A019
:0401A10001A101A116
:0401A20001A201A213
:0401A30001A301A310
:0401A40001A401A40D
:0401A50001A501A50A
:0401A60001A601A607
:0401A70001A701A704
:0401A80001A801A801
:0401A90001A901A9FE
:0401AA0001AA01AAFB
:0401AB0001AB01ABF8
:0401AC0001AC01ACF5
:0401AD0001AD01ADF2
:0401AE0001AE01AEEF
:0401AF0001AF01AFEC
:0401B00001B001B0E9
:0401B10001B101B1E6
:0401B20001B201B2E3
:0401B30001B301B3E0
:0401B40001B401B4DD
:0401B50001B501B5DA
:0401B60001B601B6D7
:0401B70001B701B7D4
:0401B80001B801B8D1
:0401B90001B901B9CE
:0401BA0001BA01BACB
:0401BB0001BB01BBC8
:0401BC0001BC01BCC5
:0401BD0001BD01BDC2
:0401BE0001BE01BEBF
:0401BF0001BF01BFBC
:0401C00001C001C0B9
:0401C10001C101C1B6
:0401C20001C201C2B3
:0401C30001C301C3B0
:0401C40001C401C4AD
:0401C50001C501C5AA
:0401C60001C601C6A7
:0401C70001C701C7A4
:0401C80001C801C8A1
:0401C90001C901C99E
:0401CA0001CA01CA9B
:0401CB0001CB01CB98
:0401CC0001CC01CC95
:0401CD0001CD01CD92
:0401CE0001CE01CE8F
:0401CF0001CF01CF8C
:0401D00001D001D089
:0401D10001D101D186
:0401D20001D201D283
:0401D30001D301D380
:0401D40001D401D47D
:0401D50001D501D57A
:0401D60001D601D677
:0401D70001D701D774
:0401D80001D801D871
:0401D90001D901D96E
:0401DA0001DA01DA6B
:0401DB0001DB01DB68
:0401DC0001DC01DC65
:0401DD0001DD01DD62
:0401DE0001DE01DE5F
:0401DF0001DF01DF5C
:0401E00001E001E059
:0401E10001E101E156
:0401E20001E201E253
:0401E30001E301E350
:0401E40001E401E44D
:0401E50001E501E54A
:0401E60001E601E647
:0401E70001E701E744
:0401E80001E801E841
:0401E90001E901E93E
:0401EA0001EA01EA3B
:0401EB0001EB01EB38
:0401EC0001EC01EC35
:0401ED0001ED01ED32
:0401EE0001EE01EE2F
:0401EF0001EF01EF2C
:0401F00001F001F029
:0401F10001F101F126
:0401F20001F201F223
:0401F30001F301F320
:0401F40001F401F41D
:0401F50001F501F51A
:0401F60001F601F617
:0401F70001F701F714
:0401F80001F801F811
:0401F90001F901F90E
:0401FA0001FA01FA0B
:0401FB0001FB01FB08
:0401FC0001FC01FC05
:0401FD0001FD01FD02
:0401FE0001FE01FEFF
:0401FF0001FF01FFFC
:0402000002000200F6
:0402010002010201F3
:0402020002020202F0
:0402030002030203ED
:0402040002040204EA
:0402050002050205E7
:0402060002060206E4
:0402070002070207E1
:0402080002080208DE
:0402090002090209DB
:04020A00020A020AD8
:04020B00020B020BD5
:04020C00020C020CD2
:04020D00020D020DCF
:04020E00020E020ECC
:04020F00020F020FC9
:0402100002100210C6
:0402110002110211C3
:0402120002120212C0
:0402130002130213BD
:0402140002140214BA
:0402150002150215B7
:0402160002160216B4
:0402170002170217B1
:0402180002180218AE
:0402190002190219AB
:04021A00021A021AA8
:04021B00021B021BA5
:04021C00021C021CA2
:04021D00021D021D9F
:04021E00021E021E9C
:04021F00021F021F99
:040220000220022096
:040221000221022193
:040222000222022290
:04022300022302238D
:04022400022402248A
:040225000225022587
:040226000226022684
:040227000227022781
:04022800022802287E
:04022900022902297B
:04022A00022A022A78
:04022B00022B022B75
:04022C00022C022C72
:04022D00022D022D6F
:04022E00022E022E6C
:04022F00022F022F69
:040230000230023066
:040231000231023163
:040232000232023260
:04023300023302335D
:04023400023402345A
:040235000235023557
:040236000236023654
:040237000237023751
:04023800023802384E
:04023900023902394B
:04023A00023A023A48
:04023B00023B023B45
:04023C00023C023C42
:04023D00023D023D3F
:04023E00023E023E3C
:04023F00023F023F39
:040240000240024036
:040241000241024133
:040242000242024230
:04024300024302432D
:04024400024402442A
:040245000245024527
:040246000246024624
:040247000247024721
:04024800024802481E
:04024900024902491B
:04024A00024A024A18
:04024B00024B024B15
:04024C00024C024C12
:04024D00024D024D0F
:04024E00024E024E0C
:04024F00024F024F09
:040250000250025006
:040251000251025103
:040252000252025200
:0402530002530253FD
:0402540002540254FA
:0402550002550255F7
:0402560002560256F4
:0402570002570257F1
:0402580002580258EE
:0402590002590259EB
:04025A00025A025AE8
:04025B00025B025BE5
:04025C00025C025CE2
:04025D00025D025DDF
:04025E00025E025EDC
:04025F00025F025FD9
:0402600002600260D6
:0402610002610261D3
:0402620002620262D0
:0402630002630263CD
:0402640002640264CA
:0402650002650265C7
:0402660002660266C4
:0402670002670267C1
:0402680002680268BE
:0402690002690269BB
:04026A00026A026AB8
:04026B00026B026BB5
:04026C00026C026CB2
:04026D00026D026DAF
:04026E00026E026EAC
:04026F00026F026FA9
:0402700002700270A6
:0402710002710271A3
:0402720002720272A0
:04027300027302739D
:04027400027402749A
:040275000275027597
:040276000276027694
:040277000277027791
:04027800027802788E
:04027900027902798B
:04027A00027A027A88
:04027B00027B027B85
:04027C00027C027C82
:04027D00027D027D7F
:04027E00027E027E7C
:04027F00027F027F79
:040280000280028076
:040281000281028173
:040282000282028270
:04028300028302836D
:04028400028402846A
:040285000285028567
:040286000286028664
:040287000287028761
:04028800028802885E
:04028900028902895B
:04028A00028A028A58
:04028B00028B028B55
:04028C00028C028C52
:04028D00028D028D4F
:04028E00028E028E4C
:04028F00028F028F49
:040290000290029046
:040291000291029143
:040292000292029240
:04029300029302933D
:04029400029402943A
:040295000295029537
:040296000296029634
:040297000297029731
:04029800029802982E
:04029900029902992B
:04029A00029A029A28
:04029B00029B029B25
:04029C00029C029C22
:04029D00029D029D1F
:04029E00029E029E1C
:04029F00029F029F19
:0402A00002A002A016
:0402A10002A102A113
:0402A20002A202A210
:0402A30002A302A30D
:0402A40002A402A40A
:0402A50002A502A507
:0402A60002A602A604
:0402A70002A702A701
:0402A80002A802A8FE
:0402A90002A902A9FB
:0402AA0002AA02AAF8
:0402AB0002AB02ABF5
:0402AC0002AC02ACF2
:0402AD0002AD02ADEF
:0402AE0002AE02AEEC
:0402AF0002AF02AFE9
:0402B00002B002B0E6
:0402B10002B102B1E3
:0402B20002B202B2E0
:0402B30002B302B3DD
:0402B40002B402B4DA
:0402B50002B502B5D7
:0402B60002B602B6D4
:0402B70002B702B7D1
:0402B80002B802B8CE
:0402B90002B902B9CB
:0402BA0002BA02BAC8
:0402BB0002BB02BBC5
:0402BC0002BC02BCC2
:0402BD0002BD02BDBF
:0402BE0002BE02BEBC
:0402BF0002BF02BFB9
:0402C00002C002C0B6
:0402C10002C102C1B3
:0402C20002C202C2B0
:0402C30002C302C3AD
:0402C40002C402C4AA
:0402C50002C502C5A7
:0402C60002C602C6A4
:0402C70002C702C7A1
:0402C80002C802C89E
:0402C90002C902C99B
:0402CA0002CA02CA98
:0402CB0002CB02CB95
:0402CC0002CC02CC92
:0402CD0002CD02CD8F
:0402CE0002CE02CE8C
:0402CF0002CF02CF89
:0402D00002D002D086
:0402D10002D102D183
:0402D20002D202D280
:0402D30002D302D37D
:0402D40002D402D47A
:0402D50002D502D577
:0402D60002D602D674
:0402D70002D702D771
:0402D80002D802D86E
:0402D90002D902D96B
:0402DA0002DA02DA68
:0402DB0002DB02DB65
:0402DC0002DC02DC62
:0402DD0002DD02DD5F
:0402DE0002DE02DE5C
:0402DF0002DF02DF59
:0402E00002E002E056
:0402E10002E102E153
:0402E20002E202E250
:0402E30002E302E34D
:0402E40002E402E44A
:0402E50002E502E547
:0402E60002E602E644
:0402E70002E702E741
:0402E80002E802E83E
:0402E90002E902E93B
:0402EA0002EA02EA38
:0402EB0002EB02EB35
:0402EC0002EC02EC32
:0402ED0002ED02ED2F
:0402EE0002EE02EE2C
:0402EF0002EF02EF29
:0402F00002F002F026
:0402F10002F102F123
:0402F20002F202F220
:0402F30002F302F31D
:0402F40002F402F41A
:0402F50002F502F517
:0402F60002F602F614
:0402F70002F702F711
:0402F80002F802F80E
:0402F90002F902F90B
:0402FA0002FA02FA08
:0402FB0002FB02FB05
:0402FC0002FC02FC02
:0402FD0002FD02FDFF
:0402FE0002FE02FEFC
:0402FF0002FF02FFF9
:0403000003000300F3
:0403010003010301F0
:0403020003020302ED
:0403030003030303EA
:0403040003040304E7
:0403050003050305E4
:0403060003060306E1
:0403070003070307DE
:0403080003080308DB
:0403090003090309D8
:04030A00030A030AD5
:04030B00030B030BD2
:04030C00030C030CCF
:04030D00030D030DCC
:04030E00030E030EC9
:04030F00030F030FC6
:0403100003100310C3
:0403110003110311C0
:0403120003120312BD
:0403130003130313BA
:0403140003140314B7
:0403150003150315B4
:0403160003160316B1
:0403170003170317AE
:0403180003180318AB
:0403190003190319A8
:04031A00031A031AA5
:04031B00031B031BA2
:04031C00031C031C9F
:04031D00031D031D9C
:04031E00031E031E99
:04031F00031F031F96
:040320000320032093
:040321000321032190
:04032200032203228D
:04032300032303238A
:040324000324032487
:040325000325032584
:040326000326032681
:04032700032703277E
:04032800032803287B
:040329000329032978
:04032A00032A032A75
:04032B00032B032B72
:04032C00032C032C6F
:04032D00032D032D6C
:04032E00032E032E69
:04032F00032F032F66
:040330000330033063
:040331000331033160
:04033200033203325D
:04033300033303335A
:040334000334033457
:040335000335033554
:040336000336033651
:04033700033703374E
:04033800033803384B
:040339000339033948
:04033A00033A033A45
:04033B00033B033B42
:04033C00033C033C3F
:04033D00033D033D3C
:04033E00033E033E39
:04033F00033F033F36
:040340000340034033
:040341000341034130
:04034200034203422D
:04034300034303432A
:040344000344034427
:040345000345034524
:040346000346034621
:04034700034703471E
:04034800034803481B
:040349000349034918
:04034A00034A034A15
:04034B00034B034B12
:04034C00034C034C0F
:04034D00034D034D0C
:04034E00034E034E09
:04034F00034F034F06
:040350000350035003
:040351000351035100
:0403520003520352FD
:0403530003530353FA
:0403540003540354F7
:0403550003550355F4
:0403560003560356F1
:0403570003570357EE
:0403580003580358EB
:0403590003590359E8
:04035A00035A035AE5
:04035B00035B035BE2
:04035C00035C035CDF
:04035D00035D035DDC
:04035E00035E035ED9
:04035F00035F035FD6
:0403600003600360D3
:0403610003610361D0
:0403620003620362CD
:0403630003630363CA
:0403640003640364C7
:0403650003650365C4
:0403660003660366C1
:0403670003670367BE
:0403680003680368BB
:0403690003690369B8
:04036A00036A036AB5
:04036B00036B036BB2
:04036C00036C036CAF
:04036D00036D036DAC
:04036E00036E036EA9
:04036F00036F036FA6
:0403700003700370A3
:0403710003710371A0
:04037200037203729D
:04037300037303739A
:040374000374037497
:040375000375037594
:040376000376037691
:04037700037703778E
:04037800037803788B
:040379000379037988
:04037A00037A037A85
:04037B00037B037B82
:04037C00037C037C7F
:04037D00037D037D7C
:04037E00037E037E79
:04037F00037F037F76
:040380000380038073
:040381000381038170
:04038200038203826D
:04038300038303836A
:040384000384038467
:040385000385038564
:040386000386038661
:04038700038703875E
:04038800038803885B
:040389000389038958
:04038A00038A038A55
:04038B00038B038B52
:04038C00038C038C4F
:04038D00038D038D4C
:04038E00038E038E49
:04038F00038F038F46
:040390000390039043
:040391000391039140
:04039200039203923D
:04039300039303933A
:040394000394039437
:040395000395039534
:040396000396039631
:04039700039703972E
:04039800039803982B
:040399000399039928
:04039A00039A039A25
:04039B00039B039B22
:04039C00039C039C1F
:04039D00039D039D1C
:04039E00039E039E19
:04039F00039F039F16
:0403A00003A003A013
:0403A10003A103A110
:0403A20003A203A20D
:0403A30003A303A30A
:0403A40003A403A407
:0403A50003A503A504
:0403A60003A603A601
:0403A70003A703A7FE
:0403A80003A803A8FB
:0403A90003A903A9F8
:0403AA0003AA03AAF5
:0403AB0003AB03ABF2
:0403AC0003AC03ACEF
:0403AD0003AD03ADEC
:0403AE0003AE03AEE9
:0403AF0003AF03AFE6
:0403B00003B003B0E3
:0403B10003B103B1E0
:0403B20003B203B2DD
:0403B30003B303B3DA
:0403B40003B403B4D7
:0403B50003B503B5D4
:0403B60003B603B6D1
:0403B70003B703B7CE
:0403B80003B803B8CB
:0403B90003B903B9C8
:0403BA0003BA03BAC5
:0403BB0003BB03BBC2
:0403BC0003BC03BCBF
:0403BD0003BD03BDBC
:0403BE0003BE03BEB9
:0403BF0003BF03BFB6
:0403C00003C003C0B3
:0403C10003C103C1B0
:0403C20003C203C2AD
:0403C30003C303C3AA
:0403C40003C403C4A7
:0403C50003C503C5A4
:0403C60003C603C6A1
:0403C70003C703C79E
:0403C80003C803C89B
:0403C90003C903C998
:0403CA0003CA03CA95
:0403CB0003CB03CB92
:0403CC0003CC03CC8F
:0403CD0003CD03CD8C
:0403CE0003CE03CE89
:0403CF0003CF03CF86
:0403D00003D003D083
:0403D10003D103D180
:0403D20003D203D27D
:0403D30003D303D37A
:0403D40003D403D477
:0403D50003D503D574
:0403D60003D603D671
:0403D70003D703D76E
:0403D80003D803D86B
:0403D90003D903D968
:0403DA0003DA03DA65
:0403DB0003DB03DB62
:0403DC0003DC03DC5F
:0403DD0003DD03DD5C
:0403DE0003DE03DE59
:0403DF0003DF03DF56
:0403E00003E003E053
:0403E10003E103E150
:0403E20003E203E24D
:0403E30003E303E34A
:0403E40003E403E447
:0403E50003E503E544
:0403E60003E603E641
:0403E70003E703E73E
:0403E80003E803E83B
:0403E90003E903E938
:0403EA0003EA03EA35
:0403EB0003EB03EB32
:0403EC0003EC03EC2F
:0403ED0003ED03ED2C
:0403EE0003EE03EE29
:0403EF0003EF03EF26
:0403F00003F003F023
:0403F10003F103F120
:0403F20003F203F21D
:0403F30003F303F31A
:0403F40003F403F417
:0403F50003F503F514
:0403F60003F603F611
:0403F70003F703F70E
:0403F80003F803F80B
:0403F90003F903F908
:0403FA0003FA03FA05
:0403FB0003FB03FB02
:0403FC0003FC03FCFF
:0403FD0003FD03FDFC
:0403FE0003FE03FEF9
:0403FF0003FF03FFF6
:00000001FF
